:020000040800F2
:1000000000000220850B0008D10B0008D10B00086E
:10001000D10B0008D10B0008D10B00080000000034
:10002000000000000000000000000000D10B0008EC
:10003000D10B000800000000D10B0008D10B000814
:10004000D10B0008D10B0008D10B0008D10B000820
:10005000D10B0008D10B0008D10B0008D10B000810
:10006000D10B0008D10B0008D10B0008D10B000800
:10007000D10B0008D10B0008D10B0008D10B0008F0
:10008000D10B0008D10B0008D10B0008D10B0008E0
:10009000D10B0008D10B0008D10B0008D10B0008D0
:1000A000D10B0008D10B0008D10B0008D10B0008C0
:1000B000D10B0008D10B0008D10B0008D10B0008B0
:1000C000D10B0008D10B0008D10B0008D10B0008A0
:1000D000D10B0008D10B0008D10B0008D10B000890
:1000E000D10B0008D10B0008D10B0008D10B000880
:1000F000D10B0008D10B0008D10B0008D10B000870
:10010000D10B0008D10B0008D10B0008D10B00085F
:10011000D10B0008D10B0008D10B0008D10B00084F
:10012000D10B0008D10B0008D10B0008D10B00083F
:10013000D10B00080000000000000000D10B0008F7
:10014000D10B0008D10B0008D10B0008D10B00081F
:10015000D10B0008D10B0008D10B0008D10B00080F
:10016000D10B0008D10B0008D10B0008D10B0008FF
:10017000D10B0008D10B0008D10B000800000000D3
:1001800000000000D10B000800000000000000008B
:10019000D10B00080000000000000000D10B000897
:1001A000000000000000000000000000D10B00086B
:1001B000D10B0008D10B0008D10B0008D10B0008AF
:1001C000D10B000810B5054C237833B9044B13B19B
:1001D0000448AFF300800123237010BD800200208B
:1001E000000000007C950008084B10B51BB10849C1
:1001F0000848AFF300800848036803B910BD074BF7
:10020000002BFBD0BDE81040184700BF00000000E5
:10021000840200207C9500087C0200200000000081
:10022000154B002B08BF134B9D46A3F5803A0021C8
:100230008B460F461348144A121A03F03CFA0F4B30
:10024000002B00D098470E4B002B00D09847002081
:10025000002104000D000D48002802D00C48AFF327
:10026000008003F031F92000290000F055FC02F075
:10027000DBFD00BF000008000000022000000000BD
:10028000000000008002002078070020000000002D
:1002900000000000704710B5044602F0AEFD204695
:1002A00010BD000010B5064B036003F118024C337B
:1002B000044642658365543002F08AFB204610BD37
:1002C000408F0008A0F15400ECE7A0F15800E9E7E6
:1002D00010B50A490A4C0B4802F0A2FB00210A485B
:1002E00000F05EF90021204600F05AF94FF07A51F3
:1002F000204600F029F9002010BD00BF448C000802
:1003000088030020F00200207803002010B5044686
:10031000FFF7C8FF204602F070FD204610BDA0F197
:100320005400F3E7A0F15800F0E7000010B5064BC9
:10033000036003F118024C33044642658365FFF7FE
:10034000B1FF204610BD00BF5C8C0008A0F1540036
:10035000ECE7A0F15800E9E710B50446FFF7E6FF27
:10036000204610BD10B50446FFF7E0FF204602F01E
:1003700044FD204610BDA0F15400F3E7A0F1580061
:10038000F0E7000070B5154C154D00230322022143
:10039000204602F065FA2046124C13492A4602F024
:1003A00027FD4FF416530A220921204600F022F9B6
:1003B0002A460E49204602F01BFD22464FF07E538E
:1003C00015210B4800F066F822464FF07E531621A7
:1003D0000848BDE8704000F05DB800BF9C020020F6
:1003E000C401002008030020A502000859030008EA
:1003F000780300208803002038B504460D4672B605
:1004000090F96C0002F07CF92946204602F022FAAD
:1004100004F1540002F0FAFA0021054694F96C0048
:1004200001F0E6FF62B6284638BDA0F15400FFF7A0
:10043000E3BF02F009BAA0F15400FFF7FABF0000D1
:1004400030B585B004460D4602F00AFA104B84F828
:100450006C5003F10802226003F120025433A365BB
:10046000626500211022684603F025F92946684696
:1004700002F00AFB94F96C00002101F0E7FF94F907
:100480006C00002101F0B4FF204605B030BD00BF74
:10049000548C000810B502604360816010BD0000FC
:1004A000DFB50446084608F025F80022104B08F096
:1004B00075F8064660680F4608F01CF802460B46C1
:1004C0003046394608F06AF808F018FB002300B2FD
:1004D0008DF80C000193001203AB8DF80D00009312
:1004E00006220223A168206800F090F804B0D0BD75
:1004F00000C02640DFB50446084607F0FBFF002297
:10050000104B08F04BF8064660680F4607F0F2FF04
:1005100002460B463046394608F040F808F0EEFA3D
:10052000002300B28DF80C000193001203AB8DF88C
:100530000D00009308220223A168206800F066F8ED
:1005400004B0D0BD00C0264007EE101AD0ED017AED
:10055000DFED126A67EE277A1FB5F0EEE77A67EEF5
:10056000A67AB5EEC07AFDEEE77AF1EE10FA17EE54
:10057000903A48BF43F480638DF80C301B128DF81D
:100580000D300023019303AB0093816800680223C0
:10059000202200F03BF805B05DF804FB00C07F446A
:1005A000012938B504460D4607D0022912D0B1B949
:1005B0000021FFF775FF002103E00B49FFF770FFF3
:1005C00009492046FFF796FF00212046FFF7BCFFB0
:1005D000E56007E00549FFF763FF0449F1E70448D8
:1005E00004F014FA002038BD5839B43D0000B4437B
:1005F000B08C000838B504461D460023FFF720FFE5
:100600002046294602F078F9204638BD2DE9F04110
:1006100086B00E46DF1CFF21FCB28DF808108DF865
:100620000910F1B28DF80A108DF80B4021440D9C91
:10063000012C0CBF04240324C9B22144D2B2C9B294
:10064000114405460C988DF80D208DF80C40C9B268
:1006500000229A4207DA845C02AF17442144BC713D
:10066000C9B20132F5E79C1D06AB2344C94303F828
:10067000101C002705F15408A74206DC02AB4046D7
:10068000D95D02F0B7F90137F6E70B4802F08EFAB0
:100690000024FE2E8DF8044008D05435284602F080
:1006A000B5F90DF804000134062CF7D19DF80400CB
:1006B00006B0BDE8F08100BFACC5A73700B585B076
:1006C00072B60521684602F0F1F910E0039B019A29
:1006D0001A60962002F078FA9DF90030013310D0AC
:1006E000019B039A1B041360962002F06DFA9DF99A
:1006F00000300133EAD106480649342202F0A6F957
:10070000E4E703480349342202F0A0F9E8E700BF18
:10071000C08C0008D88C00080F4A30B493689468E5
:10072000B4F1006F1A4604D0103030BC42F82010EB
:1007300070470A4A03F5E27553F8044B42F8044F38
:10074000AB42F9D14FF00052034B10309A6030BCED
:1007500042F82010704700BF00ED00E0FCFFFF1FD3
:1007600070B50F4C2368DA68910715D4DA68520720
:1007700009D56FF004020B4E1A615D6A3368EB1AFB
:10078000B3F57A7F00D270BD00F03EFA2368356081
:1007900005F57A759D6370BD02F01CFA2368E5E7E4
:1007A0001C0700209803002030B589B001A903A8D8
:1007B00000F042FD00F014FD264B01901A6C264C0F
:1007C000264942F008021A641A6C02F008020292EA
:1007D000029A1A6A42F008021A621A6A22F00802A1
:1007E0001A62069B21604FF0FF32E2605BB31C4B44
:1007F0004000A3FB0030800C0138606000251648E3
:100800002561A560656101F007FB32201549FFF7FE
:1008100083FF154B10484FF480225A60294601F09F
:1008200067FA04210C4801F063FA23680F495A6AF9
:100830000A6002F57A729A63DA68284642F0040286
:10084000DA6009B030BD064BA3FB0030800C1044C9
:100850006060D3E7003802401C070020000C004015
:1008600083DE1B436107000800E100E098030020DD
:1008700008B501F0E7FBBDE8084000F0ABB900BFE8
:10088000036870B51B690021012204469847431C88
:1008900006460ED0236820461B6900210222984795
:1008A0002368054631461B692046002298472846A2
:1008B00070BD70BD02480221032201F0EBBD00BFF4
:1008C00058070020084B094A026010B403F58071F4
:1008D000002453F8042F824208BF1C608B42F8D1D9
:1008E0005DF8044B704700BF98030020708D00082E
:1008F000F0B50E4685B03649054604F01EFB20B91A
:10090000344B1B6863B105B0F0BD2846324904F092
:1009100014FB78B92F4B1B6843B1012005B0F0BD23
:100920000190FFF7C7FF019805B0F0BDFFF7C2FFC8
:100930000120E8E72846294904F0FFFA10B3284BC4
:10094000002402E00134402C21D053F8042F002A67
:10095000F8D12B783A2B33D0294602A801F018FFA2
:1009600002A801F06BFF90B102A801F04DFF88B121
:1009700002A801F053FF03464BB11A4AE01C42F8AB
:100980002430C0E7134B1B68B3B10220BBE74FF024
:10099000FF30B8E702A801F027FF05460028F6D08F
:1009A000036802A89F6801F01DFF26F4803201460B
:1009B0002846B8470346DFE7FFF77CFF0220A2E79F
:1009C0002846094902AA04F049FA029BD4E700BF6D
:1009D0004C8D0008C40400205C8D0008548D000874
:1009E000980300209C030020948D000802280ADD53
:1009F000C31E074A52F82300002142F8231020B1F9
:100A000003685B681847002070474FF0FF3070475D
:100A10009C030020022812DC0E4B1B6870B50C46AC
:100A200016460BB9FFF746FFA51936B114F8011B9E
:100A3000094801F057FEAC42F8D1304670BD03388A
:100A4000064B53F8200010B103681B6818474FF09D
:100A5000FF307047C4040020580700209C0300208A
:100A600002280DDC0C4B1B6810B50C460BB9FFF7C8
:100A700021FF0A4801F028FE01232070184610BD0E
:100A80000338074B53F8200010B103689B681847E0
:100A90004FF0FF3318467047C40400205807002069
:100AA0009C030020022807DD0338064B53F8200082
:100AB00020B10368DB681847012070474FF0FF3012
:100AC000704700BF9C030020022807DD0338064B57
:100AD00053F8200020B103681B69184700207047B5
:100AE0004FF0FF30704700BF9C030020022808B57C
:100AF00004D84FF400534B60002008BD02F08EF97B
:100B0000092303604FF0FF3008BD00BF08B5012086
:100B100002F08AF9704700BF08B5FFF7A9FEFFF79A
:100B2000F9FFBDE80840FFF7D3BB00BF074A1368D1
:100B30001844EFF30881884202D2106018467047CB
:100B4000034B0C221A604FF0FF307047C8010020A1
:100B500074070020074C08B523680546986802F022
:100B600083FA2368D86802F07FFA05B9FEE7FFF739
:100B7000A5FDFBE730020020002104F094B800BF7F
:100B800002F0B0BADFF830D0002103E00B4B5B5825
:100B9000435004310A480B4B42189A42F6D30A4A92
:100BA00002E0002342F8043B084B9A42F9D301F0DB
:100BB0004FFBFFF735FB70470000022088950008C7
:100BC000C40100208002002080020020780700205D
:100BD000FEE7000008B50B4B1A6842F400721A6079
:100BE0001A6842F480621A601A6842F480721A60CD
:100BF000032000F017F80F20FFF7D6FD00F024F8CF
:100C0000002008BD003C0240024A13680133136013
:100C1000704700BF9C040020014B1868704700BF5C
:100C20009C040020074AD1684FF6FF030B4043F0B5
:100C3000BF6300F0070043F4003343EA0023D360AE
:100C4000704700BF00ED00E0704700BF2DE9F04F96
:100C5000DFF81CC2DFF81CE20F687E4E85B000236F
:100C600003E00133102B00F0988001229A4002EA41
:100C700007049442F5D14D6825F0100ABAF1020F2D
:100C800000F08E804FEA43090322D0F800B002FA48
:100C900009F2D24305F0030802EA0B0B08FA09F83F
:100CA0000AF1FF3A4BEA0808BAF1010F0192C0F8C5
:100CB000008040F29F80D0F80C80019A02EA080A76
:100CC0008A6802FA09F84AEA0802C260EA00C8D54E
:100CD000DEF8442042F48042CEF84420DEF844207E
:100CE00023F0030909F1804902F4804209F59C3997
:100CF000039203F0030A039AD9F808804FEA8A0A9C
:100D00000F2202FA0AF2604528EA020800F08B80FE
:100D1000514A904200F08980504A904200F0898008
:100D20004F4A904200F089804E4A904200F08980FC
:100D30004D4A904200F089804C4A90420CBF0622F6
:100D4000082202FA0AF242EA0802C9F808203268C8
:100D50006FEA040815F4803F14BF224308EA020238
:100D60003260726815F4003F14BF224308EA0202A1
:100D70007260B26815F4801F14BF224308EA0202B1
:100D8000B260F268AD0203F1010354BF08EA020445
:100D90001443102BF4607FF468AF05B0BDE8F08F0A
:100DA0004FEAD30900EB890903F00708D9F820209E
:100DB0004FEA88084FF00F0A0AFA08FA22EA0A0AEC
:100DC0000A6902FA08F24AEA0202C9F820204FEA48
:100DD00043090322D0F800A002FA09F2D24305F039
:100DE000030802EA0A0A08FA09F84AEA080801921E
:100DF000C0F80080D0F80880019A02EA080ACA68A0
:100E000002FA09F84AEA0808C0F80880D0F804A0F5
:100E1000C5F300182AEA040A08FA03F84AEA08089F
:100E2000C0F8048047E700228DE7012202FA0AF2A7
:100E300089E7022202FA0AF285E7032202FA0AF29D
:100E400081E7042202FA0AF27DE7052202FA0AF299
:100E500079E700BF003C0140000402400008024066
:100E6000000C024000100240001402400018024032
:100E70000000024000380240234B30B51A6C42F0AB
:100E800080521A641B6C83B003F080530193019B62
:100E90004FF4803393FAA3F3B3FA83F39B0003F187
:100EA000844303F5602301221A60FFF7B5FE174C57
:100EB000054605E0FFF7B0FE401BB0F57A7F20D86D
:100EC0006368DA03F6D54FF4003393FAA3F3B3FA69
:100ED00083F39B0003F1844303F5602301221A602E
:100EE000FFF79AFE094C054605E0FFF795FE401B0B
:100EF000B0F57A7F05D863689B03F6D5002003B070
:100F000030BD032003B030BD003802400070004007
:100F10007C4A136803F00F038B422DE9F0410C4625
:100F2000054609D2CBB21370136803F00F038B424E
:100F300058D00120BDE8F08103689A0706D57248B1
:100F4000AA68816821F0F0010A438260DF0727D593
:100F50006B68012B79D09A1E012A6B4A126840F205
:100F600087809107E5D5684EB26822F003021343EB
:100F7000B360FFF751FE6B68012B07467CD0022B54
:100F800000F08880032B65D041F2883804E0FFF739
:100F900043FEC01B404565D8B36813F00C0FF6D173
:100FA000584BE2B21A701B6803F00F03A342C0D182
:100FB0002B685A0706D55448EA68816821F4E05145
:100FC0000A4382601B0707D54F4A2969936823F4B7
:100FD000604343EAC10393600F20FFF7E5FB002065
:100FE000BDE8F08103689F0706D54748AA68816875
:100FF00021F0F0010A438260DE07DAD56B68012B2D
:1010000056D09A1E012A404A12682ED9910790D5CF
:101010003D4CA26822F003021343A360FFF7FCFDDE
:101020006B68012B064648D0022B54D0032B60D0AE
:1010300041F2883704E0FFF7EFFD801BB84211D87A
:10104000A36813F00C0FF6D1B2E72F4A126896038B
:1010500089D46EE741F28834B368FFF7DDFDC01B29
:10106000A042F9D90320BDE8F0819001D0D460E717
:1010700090013FF578AF5CE741F2883804E0FFF774
:10108000CBFDC01B4045EDD8B36803F00C03042B27
:10109000F5D185E741F2883804E0FFF7BDFDC01BBC
:1010A0004045DFD8B36803F00C03082BF5D177E790
:1010B000154A12689403ABD43BE741F2883704E049
:1010C000FFF7AAFD801BB842CCD8A36803F00C033D
:1010D000042BF5D16CE741F2883704E0FFF79CFD63
:1010E000801BB842BED8A36803F00C03082BF5D1CF
:1010F0005EE741F28835A368FFF78EFD801BA842AA
:10110000F9D9AFE7003C024000380240F0B5034691
:1011100089B00D461646224C08B3236B214843F094
:1011200004032363236B03F0040302934FF4007E54
:1011300000230322022703A9069205930793DDF8F3
:1011400008C0CDF80CE00497FFF780FDA36845EADE
:10115000C60223F078431A43A26009B0F0BD226BA7
:10116000114842F001022263226B059302F0010252
:1011700001924FF4807E0322022703A9079306926F
:10118000DDF804C0CDF80CE00497FFF75FFDA3681D
:1011900023F0EC6346EA03021543A56009B0F0BDF5
:1011A00000380240000802400000024010B500F084
:1011B0002DFD084BF0229B6892FAA2F203F0F00397
:1011C000B2FA82F2044C0549D340E35CD84008608F
:1011D00010BD00BF00380240A48D0008CC010020E3
:1011E00008B5FFF7E3FF074B4FF4E0529B6892FA14
:1011F000A2F203F4E053B2FA82F20349D340CB5C8B
:10120000D84008BD00380240A48D000808B5FFF79B
:10121000CDFF074B4FF460429B6892FAA2F203F4B1
:101220006043B2FA82F20349D340CB5CD84008BD98
:1012300000380240A48D00080E4B0F2202609A680D
:1012400002F0030242609A6802F0F00282609A683B
:1012500002F4E052C2609B6803F4604310B4DB0800
:10126000054C036123685DF8044B03F00F030B602A
:10127000704700BF00380240003C02402DE9F04FAB
:10128000036813F0010683B004460BD0AE48A26B8E
:10129000D0F88C10B2FA82F621F0C0610A43C0F88F
:1012A0008C2076099A070BD5A749E06BD1F88C20E2
:1012B00022F0C05202430028C1F88C2008BF01264A
:1012C00013F0040510D0A049256BD1F88C2022F42E
:1012D00040122A43B5F5801FC1F88C2015BFB5FA1E
:1012E00085F500256D0901261F070FD59648616B0E
:1012F000D0F88C2022F440020A43B1F5800FC0F8E8
:101300008C2000F05A81002908BF0125980600F1C1
:1013100007812368DF0604D58C4B94F858201A60A7
:101320002368180608D58848E26CD0F8941021F498
:1013300040010A43C0F89420590608D58248A26C9F
:10134000D0F8941021F080610A43C0F89420DA05A7
:101350000CD57D49606DD1F8942022F000620243E3
:10136000B0F1006FC1F8942008BF01259F0508D592
:101370007548626CD0F8941021F080510A43C0F88F
:10138000942058050BD4012E15D0B3F5006F12D060
:10139000012D00F01481002003B0BDE8F08F6A48F1
:1013A000216DD0F8942022F000520A43B1F1005F81
:1013B000C0F89420E7D1664B634E00221A60FFF715
:1013C0002BFC074605E0FFF727FCC01B642800F252
:1013D000A38033681901F6D42168CA0740F155810A
:1013E000A36B002B40F05181574F4FF4403ED7F88C
:1013F00084209EFAAEF34FF0706CB3FA83F3D7F803
:1014000084009CFAACF847F6C079B8FA88F899FAE3
:10141000A9F9B9FA89F99EFAAEFEBEFA8EFE9CFAD7
:10142000ACFC4FF0E04ABCFA8CFC9AFAAAFA666966
:10143000BAFA8AFA02F44032DA4006FA0AF3A668E7
:10144000013206FA09F900F07060666822F0004285
:1014500020FA08F049EA030800FA0CF0531E48EAA3
:10146000060603FA0EF246EA00031343C7F8843077
:101470004F0704D5236BB3F5801F00F01D810E07C5
:1014800004D5636BB3F5800F00F01681480504D5D1
:10149000236DB3F1005F00F05C810A052CD547F69F
:1014A000C07898FAA8F84FF4403CB8FA88F89CFA4B
:1014B000ACFC4FF0706EBCFA8CFC9EFAAEFE4FF0A6
:1014C000E047BEFA8EFE97FAA7F7E268A36866685F
:1014D00020696169B7FA87F75208013A02FA0CF2FB
:1014E00003FA08F31343334300FA0EF00343B94001
:1014F000154A1943C2F88410154B134E01221A6085
:10150000FFF78AFB074633681B013FF541AFFFF742
:1015100083FBC01B6428F6D9032003B0BDE8F08F1D
:10152000094B0C4F1A6C42F080521A641B6C03F08A
:1015300080530193019B3B6843F480733B60FFF74A
:101540006BFB80460EE000BF00380240E0114742CE
:101550006800474200700040FFF75EFBC8EB0000E8
:101560006428D9D83B68D905F6D5BB4B226C196FD6
:101570004A4012F4407F3FF4CCAE1A6FB74922F4D0
:1015800040704FF0010E00279207C1F800E00F6095
:10159000186700F12281236C03F44072B2F5407F9A
:1015A0007FD0AD498A6822F4F8128A60AA490A6F8E
:1015B000C3F30B0313430B67ABE60126A6E6A84B68
:1015C000A54D00221A60FFF727FB064604E0FFF74F
:1015D00023FB801B64289FD82B689F00F7D42268C8
:1015E00050075AD4110737D5636BABBB9A4E4FF4F3
:1015F0004031D6F8883091FAA1F047F6C077B0FABA
:1016000080F097FAA7F7B7FA87F791FAA1F14FF0B0
:10161000706EB1FA81F19EFAAEFE03F44033E569D3
:10162000BEFA8EFEC340606A0133BD4023F0004322
:10163000A76900FA0EF0013B28438B40384303436F
:10164000C6F88830D6F88C30E16A23F4F8530139B3
:1016500043EA0123C6F88C30D20504D5636DB3F19B
:10166000006F00F0CB807E4B7B4C01221A60FFF7AD
:10167000D3FA054605E0FFF7CFFA401B64283FF692
:101680004BAF23689B00F6D585E68B077FF5F0AE60
:10169000E36B002B7FF4ECAEA6E6236B002BA5D00A
:1016A000A0E76D48826823F0704122F4F81221F41B
:1016B00040710A43826079E7674E4FF44030D6F8B4
:1016C000843090FAA0FB4FF0E04CBBFA8BFBD6F8CD
:1016D00084209CFAACF847F6C07AB8FA88F89AFAEF
:1016E000AAFABAFA8AFA90FAA0F04FF07069B0FA42
:1016F00080FE99FAA9F9B9FA89F99CFAACFC20693B
:10170000A768BCFA8CFC03F4403323FA0BF300FA0D
:1017100009F90133606802F0E04207FA0AF723F0A2
:10172000004322FA08F247EA0907013B02FA0CF2E9
:101730003843024303FA0EF31343C6F88430D6F855
:101740008C30A26A23F01F03013A1343C6F88C3091
:101750009CE6DFF804814FF44036D8F8843096FADE
:10176000A6FB4FF0E040BBFA8BFBD8F8842090FA40
:10177000A0FA47F6C079BAFA8AFA99FAA9F9B9FA39
:1017800089F996FAA6F64FF0706CB6FA86FE9CFAC6
:10179000ACFCBCFA8CFC90FAA0F6E068A768B6FA3C
:1017A00086F64008013803F4403300FA0EFE23FAAF
:1017B0000BF3606802F0E04207FA09F7013322FAFE
:1017C0000AF247EA0E075B00B240074303FA0CF344
:1017D0003A431343C8F884305FE61F46FFF71CFA0C
:1017E00041F2883881463B6F9B073FF5D4AEFFF747
:1017F00013FAC9EB00004045F5D98DE616484FF0C5
:101800007062D0F8883092FAA2F747F6C071B7FA42
:1018100087F791FAA1F14FF4403EB1FA81F19EFAB7
:10182000AEFEBEFA8EFE92FAA2F5226AD4F81CC071
:10183000A669B5FA85F45208013A03F070630CFA10
:1018400001F102FA0EF2FB400A43A3403243134374
:10185000C0F8883007E700BF00380240400E47421A
:10186000700047422DE9F0430368DD0783B004466A
:101870003AD5AD498A6802F00C02042A00F00E81C4
:101880008A6802F00C02082A00F00481A6498A68DE
:1018900002F00C020C2A00F01E81A44BA24D002283
:1018A0001A70FFF7B9F9064605E0FFF7B5F9801B96
:1018B000C82800F2CF802B689F03F6D49B4B227977
:1018C0001A706368002B00F01C81FFF7A5F9964D94
:1018D000064605E0FFF7A0F9801BC82800F2BA8091
:1018E0002B689803F6D523689A0735D58E4A9168F8
:1018F00011F00C0F00F0B680916801F00C0108297E
:1019000000F0AC8088498A6802F00C020C2A00F0D2
:101910006381E368002B00F0E380854B824D012258
:101920001A60FFF779F9064605E0FFF775F9801BA5
:10193000642800F28F802B687B4A9807F5D51168E0
:10194000F82090FAA0F02369B0FA80F021F0F801B5
:1019500083400B43136023681A0722D4580737D4F7
:10196000A269D2B1704B996801F00C01082900F00E
:101970009E80022A6F4A4FF00001116000F0CF8074
:101980001C46FFF749F9054604E0FFF745F9401BFF
:1019900064285FD823689B01F7D4002003B0BDE81A
:1019A000F0836369002B00F08680634B5E4D01225B
:1019B0001A60FFF731F9064604E0FFF72DF9801BA6
:1019C000642847D86B6F9B07F7D523685807C7D59E
:1019D000554B5A4D1A6C42F080521A641B6C03F03E
:1019E00080530193019B2B6843F480732B60FFF7B6
:1019F00013F9064604E0FFF70FF9801B642829D885
:101A00002B68D905F7D54E4B474D00221A70FFF7CA
:101A100003F941F28836074604E0FFF7FDF8C01BE2
:101A2000B04217D82B6F9A07F7D4454B227A1A7019
:101A3000A368002B00F0D580FFF7EEF83A4D07467B
:101A400041F288362B6F9B078AD4FFF7E5F8C01B5D
:101A5000B042F7D9032003B0BDE8F08352685702C3
:101A60003FF550AF304A1268950702D5E268012A67
:101A70001DD12D4DF820296890FAA0F02269B0FA06
:101A800080F021F0F80182400A432A601A077FF5AE
:101A900065AF86E74A6850027FF5F8AE224A1268C1
:101AA00092037FF521AF6268002A7FF41DAF012009
:101AB00003B0BDE8F083204A1B4D1360FFF7ACF87C
:101AC000064604E0FFF7A8F8801B6428C2D86B6FB5
:101AD0009F07F7D479E74A6851027FF5DEAEDDE76C
:101AE000134A114D1360FFF797F8064604E0FFF71D
:101AF00093F8801B6428ADD82B689907F7D4236826
:101B00002AE7FFF789F8084D064604E0FFF784F856
:101B1000801BC8289ED82B689903F7D4E3E61D469E
:101B2000FFF77AF8064612E0003802400238024019
:101B30000000474260004742800E4742007000406C
:101B400070380240FFF768F8801B642882D82B6841
:101B50002C4A9901F6D447F6C07E9EFAAEFE4FF4A9
:101B60004037BEFA8EFE97FAA7F74FF07065B7FAC6
:101B700087F795FAA5F54FF0E049B5FA85F599FA9A
:101B8000A9F9A36A666AD4F82080D4F81CC0E06A78
:101B9000216BB9FA89F45B0806FA0EF6013B48EAB4
:101BA0000C0E4EEA0606BB40A8403343A140034357
:101BB00015480B430121536001601446FFF72CF8D0
:101BC000054605E0FFF728F8401B64283FF642AFC2
:101BD00023689A01F6D5E0E64A6856023FF599AEC9
:101BE00040E7FFF719F8074D074641F288362B6F9B
:101BF00098077FF5B5AEFFF70FF8C01BB042F6D9D6
:101C000028E700BF00380240600047423449886836
:101C100000F00C00082830B409D00C2834D0314B27
:101C2000314A30BC04280CBF1846104670474A6839
:101C30004D6802F03F0447F6C0734A68680293FAA1
:101C4000A3F347F6C07000EA02004ABF2549264ABE
:101C5000B1FBF4F22249B3FA83F320FA03F058BF40
:101C6000B2FBF4F202FB00F34FF44032486892FA00
:101C7000A2F200F44030B2FA82F2D04001304000CB
:101C800030BCB3FBF0F070474A684D6802F03F0487
:101C900047F6C0734A68690293FAA3F347F6C07027
:101CA00000EA02004ABF0F490F4AB1FBF4F20C49A7
:101CB000B3FA83F320FA03F058BFB2FBF4F202FB4D
:101CC00000F34FF0E042486892FAA2F200F0E040E0
:101CD000B2FA82F230BCD040B3FBF0F0704700BFE4
:101CE0000038024000127A000024F400704700BF60
:101CF00003680122186A8A4020EA020010B41862C0
:101D0000196A0A4C0A43A3421A620AD0084A93424B
:101D100007D01A685DF8044B42F0010200201A60F7
:101D200070475A6C42F400425A64F2E700000140E6
:101D300000040140364A0368904270B454D0B0F1B8
:101D4000804F30D0A2F57C4290422CD002F58062C8
:101D5000904228D002F58062904224D002F5784269
:101D6000904220D002F57052904230D002F580624D
:101D700090422CD002F58062904228D0A2F5983291
:101D8000904224D002F58062904220D002F5806219
:101D900090421CD08C680A6803600123C46282628E
:101DA00070BC436170474A681A4C8E680D6823F016
:101DB00070031343CA6823F440731343A0420360C3
:101DC000C66285621DD00123436170BC7047CA683A
:101DD0008C68096823F44073134303600123C462D1
:101DE000816270BC436170474A68CC688E680D6838
:101DF00023F070031A4322F4407222430260C66249
:101E000085620B6903630123436170BC704700BFA7
:101E10000000014000040140C0B190F8393010B515
:101E200003F0FF02044663B12146022351F8040B7C
:101E300084F83930FFF77EFF012384F83930002021
:101E400010BD80F83820FFF751FFEDE70120704703
:101E50002DE9F0410468C7682369C569D0F810C04E
:101E60008268416923F4405E4EEA070706468069AE
:101E70002761E3684CEA020223F416430A4323F085
:101E80000C032A431343E360636923F44073034361
:101E9000B5F5004F6361514B39D09C4200F0818011
:101EA00003F580639C427CD0FFF79AF975684C4F2C
:101EB00000EB800000EB8000AD00B0FBF5F5FFF714
:101EC0008FF9A7FB053572686D0900EB800000EB08
:101ED000800092002D01B0FBF2F8FFF781F97168E4
:101EE00000EB800000EB80008900B0FBF1F1A7FB64
:101EF00001314909642202FB118212013232A7FB2F
:101F00000223C3F343132B43A360BDE8F0819C423B
:101F100025D003F580639C4221D0FFF761F97568F5
:101F20002F4F00EB800000EB80006D00B0FBF5F55B
:101F3000FFF756F9726800EB800000EB800052005A
:101F4000B0FBF2F8FFF74CF9A7FB053571686D0996
:101F500000EB80002D0100EB80004900C5E7FFF792
:101F600055F975681E4F00EB800000EB80006D0096
:101F7000B0FBF5F5FFF74AF9726800EB800000EB63
:101F800080005200B0FBF2F8FFF740F9A7FB0535DF
:101F900071686D0900EB80002D0100EB80004900A5
:101FA000A3E7FFF733F975680D4F00EB800000EBF6
:101FB0008000AD00B0FBF5F5FFF728F9A7FB05356C
:101FC00072686D0900EB800092002D0100EB80002B
:101FD000B0FBF2F8FFF71AF981E700BF00100140EB
:101FE0001F85EB51704700BF50B338B590F83930BA
:101FF000044603F0FF02F3B12268022384F839306B
:10200000D36823F40053D3602046FFF721FF2368F1
:102010001A6922F490421A615A6922F02A025A611E
:10202000DA68002142F400520125DA600846E163D3
:1020300084F8395038BD80F83820FFF7D3FFDBE74C
:10204000012070471848836803F00C03042B29D043
:10205000082B0AD0154B144A154892681549C2F34B
:102060000312825CD3400B6070474368416813F4ED
:10207000800F436818BF104801F03F020CBF0B49A6
:10208000B0FBF2F1C3F3881308BFB1FBF2F101FB1F
:1020900003F2054B5B68C3F3014301335B00B2FB02
:1020A000F3F3D8E7044BD6E7003802400024F400ED
:1020B000B48D0008CC01002000127A00324A334B64
:1020C000116C2DE9F04141F080511164126CACB0FB
:1020D00002F080520192019A1A6842F440421A605A
:1020E0001B6803F4404302930123029A089380463D
:1020F00000B10523022409934FF4800708264FF40A
:10210000B472072308A80E94129414940F97109693
:1021100011921393FFF7A6FB18B100202CB0BDE875
:10212000F081FEF7A9FE05460028F6D14FF4C071F4
:102130004FF480724FF0006315A81B961D961C91FA
:1021400015922A930F26FFF799F84FF4A0524FF4F7
:10215000805303A8052106920494059503960793DE
:10216000FEF7D6FE024638B93946B8F1000F05D061
:10217000FEF7CCFF0120D1E72846CFE74FF0806281
:10218000FEF7C4FF0120C9E700380240007000409C
:10219000244A254B116CF0B541F080511164126C4A
:1021A00095B002F080520092009A1A6842F44042C0
:1021B0001A601B6803F44043019303261023002494
:1021C00002254FF4B4710622012707A80796DDF80F
:1021D00004E00A9708940E940B930F930D951195B4
:1021E00010911292FFF73EFB064610B1204615B043
:1021F000F0BD4FF4A0524FF4805305210F2402A8E4
:1022000003950496029405920693FEF781FE01461B
:1022100010B1304615B0F0BD0246FEF777FF3846E4
:1022200015B0F0BD003802400070004008B5012034
:10223000FFF744FF18B9FFF7ABFF00B9FEE7012035
:1022400000214FF0C062BDE80840FEF75FBF00BF4D
:10225000174A1848D2F8883070B543F47003164C0A
:10226000C2F888302368154E154D002143F0010354
:102270002360A160236823F0847323F480332360F8
:10228000666023684FF0006623F480232360E160DA
:1022900096600560FEF79EFCFFF7C8FF236A43F0D7
:1022A00008032362236A23F00803236270BD00BF82
:1022B00000ED00E0CC010020003802401030002486
:1022C00080A8120100B589B0072875D8DFE800F0B2
:1022D00012202E3C4A5866043B4B3C481A6B42F095
:1022E00080021A631B6B03F080030793079B09B0FE
:1022F0005DF804FB344B36481A6B42F001021A6356
:102300001B6B03F001030093009B09B05DF804FB15
:102310002D4B30481A6B42F002021A631B6B03F01C
:1023200002030193019B09B05DF804FB264B2A4888
:102330001A6B42F004021A631B6B03F0040302934E
:10234000029B09B05DF804FB1F4B24481A6B42F056
:1023500008021A631B6B03F008030393039B09B085
:102360005DF804FB184B1E481A6B42F010021A630A
:102370001B6B03F010030493049B09B05DF804FB8E
:10238000114B18481A6B42F020021A631B6B03F0C2
:1023900020030593059B09B05DF804FB0A4B124826
:1023A0001A6B42F040021A631B6B03F04003069362
:1023B000069B09B05DF804FB0C4800F053FB0020BD
:1023C00009B05DF804FB00BF00380240001C024069
:1023D000000002400004024000080240000C0240DD
:1023E000001002400014024000180240F88D00085E
:1023F00030B5431C87B005460C461BD0C5F303100F
:10240000FFF760FF05F00F0504F00F010C4A0123F0
:10241000AB40019352F821500295C4F302120323FA
:10242000C4F3C31401A9039205940493FEF70EFCB0
:1024300007B030BD03480449812200F007FBDDE707
:10244000C48D00081C8E0008308E000838B5431C6F
:1024500004460D4614D0C4F30310FFF733FF04F015
:102460000F04C26864000323A34022EA0303C3608D
:10247000022DC3688CBF0025A5401D43C56038BD33
:1024800002480349A62200F0E1FAE4E71C8E0008A6
:10249000308E00082DE9F04F0E4687B004460846FE
:1024A0006B49154600F05AFB6A490746284600F07A
:1024B00055FB0146384600F03FFB411C074600F043
:1024C000C180654B984200F0B08018D9634B9842A8
:1024D00000F09E8003F5806398427DD0A3F54443CD
:1024E000984220D15E4B1A6C42F480121A641B6C25
:1024F00003F4801304930423049A636013E0A3F5A8
:10250000006398425BD003F5806398420BD1544B33
:102510001A6C42F480221A641B6C03F48023029329
:10252000029A022363603046494900F0E3FA2846E4
:10253000484900F0DFFA721C03D030460121FFF752
:1025400085FF6B1C03D028460121FFF77FFF6168E0
:10255000DFF828816576890108EB01000246002337
:102560004FF4165E2676C4F808E0E36023616361E9
:1025700000F1100C42F8083F013548F80170C0F82E
:1025800004E0C361C384C38553609360CCF8083012
:102590002FD001360CBF04230C23CCF80430FFF7F6
:1025A00023FD10B12F4800F05DFA63682E4A9B01AD
:1025B00058F80330934220D007B0BDE8F08F284B85
:1025C0001A6C42F400321A641B6C03F4003301935A
:1025D0000123019A6360A6E7214B5A6C42F0200266
:1025E0005A645B6C03F020030593059B052363602D
:1025F00099E70823CCF80430D1E71C4B1C4821464E
:102600001C2201241C6001F04BF807B0BDE8F08FDC
:10261000134B5A6C42F010025A645B6C03F01003C7
:1026200000930023009A63607DE70D4B1A6C42F41F
:1026300000221A641B6C03F4002303930323039A00
:10264000636070E70B480C49C82200F0FFF96AE7A5
:1026500014910008A8900008004C004000100140B0
:1026600000380240208F000800440040C4040020CD
:1026700058070020988E0008B48E0008C804002077
:1026800008B54268074B816003EB82131846596016
:10269000FFF7AAFC00B908BD0348BDE8084000F0F8
:1026A000E1B900BFC8040020208F000810B4044B1B
:1026B00044680448196040F824205DF8044B7047D2
:1026C000C0040020A00400204368054A9B01D258A2
:1026D00013689B06FCD55068C0F30800704700BF24
:1026E000C80400204368054A9B01D25813681B06A2
:1026F000FCD5C1F308015160704700BFC804002039
:10270000014900F0F7B900BF14910008054B1868A3
:1027100000B17047044A0549116001221A60FEF7B2
:1027200043B800BF04070020C8060020000C00408A
:1027300008B5064B186830B9054A064911600122F0
:102740001A60FEF731F8034B586A08BD04070020F1
:10275000C8060020000C0040034B1B685863DA6871
:1027600042F00202DA607047C8060020034B1A6884
:10277000D36823F00203D360704700BFC80600206F
:10278000024B1B686FF002021A617047C8060020F6
:1027900038B50023036043600A782F2A044601D02D
:1027A000204638BD4A78002AFAD0481C20604D786F
:1027B0002F2D13D085B1034600E06AB15D1A0133B5
:1027C00023601A782F2AF8D129460133236000F0BC
:1027D000A3FA6060204638BD2946F8E7194603464B
:1027E000F3E700BF00687047436843B110B5044683
:1027F000184600F0AFFA012803D1606810BD002030
:102800007047002010BD00BF406830B108B500F02F
:10281000A1FAB0FA80F0400908BD704743684BB197
:1028200010B50446184600F095FA28B9606818B14A
:10283000043810BD00207047002010BD40680030F3
:1028400018BF0120704700BF00F05EB8A0F154002F
:10285000FFF7FABF00F05CB8A0F15400FFF7FABF31
:1028600038B504461D4600F023F8294604F154000B
:1028700000F08CF8054B03F1080103F120025433FA
:1028800021606265A365204638BD00BF388F00080F
:1028900001EB4101C90043185A6B1B6A2AB11BB1F5
:1028A00001442431184610477047002BFCD01847CC
:1028B00038B504460E4B0360251D00234FF4165017
:1028C000206563602846A360E36023616361A361C0
:1028D0002377637723626363A363E364FFF7DAFD1F
:1028E000284622460349FFF7E1FE204638BD00BFD7
:1028F000A08F00089128000838B504460D46043022
:10290000FFF7BEFE256538BD0430FFF7DDBE00BF12
:1029100010B504300C46FFF7E5FE204610BD00BFA1
:1029200000207047F8B58E18B1420F460ED005460C
:102930000C4601E0A64207D02B6814F8011B5B6A25
:10294000284698470130F5D1E01BF8BD0C46FBE75F
:10295000F8B58E18B1420F460ED005460C4603E07E
:1029600004F8010BA64205D02B6828469B6A9847BD
:10297000431CF5D1E01BF8BD0C46FBE70020704777
:1029800000207047002070470020704710B584B0C9
:10299000044600F0E1F90B4B0B4903F1080000225B
:1029A0003C3384E80900626101A8224602F032FA51
:1029B000064901A800F08CFC6061FEF7DDF82046B6
:1029C00004B010BDA88F0008948D0008EC8F00089B
:1029D00010B5074B03F108023C33044680E80C00B5
:1029E000406900F087FA204600F0CAF9204610BD81
:1029F000A88F000838B504460D46406900F034FB46
:102A000028466169BDE8384000F08EBC10B5044628
:102A1000406900F029FB6069BDE81040FEF7B0B8DE
:102A20000EB430B582B005AB044653F8045B406980
:102A3000019300F019FB29466069019A01F024F81E
:102A400002B0BDE8304003B0704700BF10B40C4680
:102A500013460146224602485DF8044B00F002B8D6
:102A6000F08F00080FB400B5064B83B004AA1B68B2
:102A700052F8041BD868019201F006F8012000F01A
:102A8000D3F900BF3002002038B50D46044600F0EF
:102A9000BFF8013509D02046002100F0D3F82046C8
:102AA0000021BDE8384000F0C9B838BD38B50D4642
:102AB000044600F0ADF8013511D094F9003001332F
:102AC0000ED06368E2681B0420461360012100F009
:102AD000B9F820460021BDE8384000F0AFB838BD55
:102AE000024803493422FFF7B1FFEAE7C08C00082F
:102AF000D88C0008431C10B5044619D091F9003059
:102B0000581C04D10FE011F90C3F5A1C0BD09C4209
:102B1000F9D120468968FFF76BFC20460021BDE80B
:102B20001040FFF793BC0348BDE81040FFF79ABF81
:102B300010BD00BF2490000888420AD0421C09D072
:102B4000013106D008B50448FFF78CFF4FF0FF3085
:102B500008BD70470846704738900008421C0FD0E7
:102B600008B591F900305A1C04D10AE011F90C3F64
:102B70005A1C06D09842F9D14868411C01D008BDC2
:102B800070470348FFF76EFF4FF0FF30F7E700BFD5
:102B90004C90000838B50546FFF7CAFD0446FFF71C
:102BA000C7FD001BA842FAD338BD00BF07EE100ACC
:102BB000DFED047A67EE277AFDEEE77A17EE900AEA
:102BC000FFF7E8BF002474494FF47A7303FB00F069
:102BD000FFF7E0BF014800F0E5B800BFA090000893
:102BE000431C10B5044608D020460021FFF700FC26
:102BF00004F00F040120A04010BD03480349272220
:102C0000FFF724FFF0E700BF1C8E0008809100084A
:102C100070B505464B1C0C4629700DD0C1F303104E
:102C2000FFF750FB06462046FFF7DAFF06F11003D8
:102C300018366860AB60EE6070BD00BF90F90000B0
:102C4000FFF704BC38B5054690F90000431C0C465C
:102C50000BD0012C04D00021BDE83840FFF7C8BBE1
:102C60002146BDE83840FFF7C3BB0448044946226B
:102C7000FFF7ECFE95F90000EBE700BFC08C000801
:102C8000809100088368094A026053B1084B1A68B2
:102C9000824201D106E01A4653688342FBD1436861
:102CA0005360704742681A60704700BFF89100088F
:102CB0001007002083680C4A10B50446026053B127
:102CC0000A4B1A68904201D10AE01A4653689C42A6
:102CD000FBD163685360204600F08FF8204610BD9A
:102CE00042681A60F7E700BFF8910008100700205B
:102CF00010B40023064C027381600460436019B174
:102D0000044B1A68426018605DF8044B704700BFBE
:102D1000F8910008100700200D4B70B51C6806469E
:102D20000D4614B912E0646884B1A36831462A469E
:102D30001846002BF7D002F012F90028F3D1A06852
:102D400002F005F9A842EED1204670BD002070BD0A
:102D500010070020007B704710B5074B0446002287
:102D600040F8043BFFF7C4FF044B03F1080234337F
:102D700084E80C00204610BD708D00080092000809
:102D800010B5074B044603F108023433226040F8C3
:102D9000043FFFF777FF2046FDF794FD204610BD66
:102DA00000920008036870B5DB68054698476B68B9
:102DB0005B6883B12A681C6853689847201A00280A
:102DC0006A680DDC50681168836853600029F0D090
:102DD00040688847EBE72B68BDE870409B68184760
:102DE0002B6852681B691068BDE87040184700BF27
:102DF0000B460146184600F003B800F0F3BB000094
:102E000010B5054C13462CB10A4601460220AFF31B
:102E1000008010BD204610BD00000000014B186866
:102E2000704700BF3002002008B5074B044613B1BD
:102E30000021AFF30080054B1868836A03B19847FF
:102E40002046FDF787FE00BF00000000A0920008AA
:102E500070B505460C4609B9002070BD18B18369EC
:102E60000BB900F087F9204B9C4201D16C6808E057
:102E70001E4B9C4201D1AC6803E01D4B9C4208BF35
:102E8000EC68B4F90C30002BE6D02146284600F05F
:102E900039F8236B064633B1216A28469847002843
:102EA000B8BF4FF0FF36A3891B0603D5216928461A
:102EB00000F00AFC616B41B104F14403994202D075
:102EC000284600F001FC00236363A16C21B1284671
:102ED00000F0FAFB0023A36400F0B8F90023A381FB
:102EE00000F0B5F9304670BD3C9200085C920008D5
:102EF0007C920008024B01461868FFF7A9BF00BF8B
:102F0000300200208A892DE9F041054610070C4661
:102F100059D44B68002B02DC0B6C002B17DDE66AE2
:102F2000AEB102F48052002392B22F682B600AB136
:102F3000606D15E0216A01232846B047411C0FD17E
:102F40002B686BB11D2B01D0162B03D12F600020F5
:102F5000BDE8F081A38943F04003A381BDE8F0817F
:102F6000A3895A0705D56368C01A636B0BB1236C3C
:102F7000C01A00230246E66A216A2846B047431C6D
:102F8000A38906D129681D293AD8214ACA40D60703
:102F900036D500226260D9042269226004D5421C21
:102FA00001D12B6803B96065616B2F600029CED019
:102FB00004F14403994202D0284600F085FB00202A
:102FC0006063BDE8F0810F69002FC0D093070E68E1
:102FD00008BF4B690F6018BF0023C7EB06088B6062
:102FE00002E00744C0EB0808B8F1000FAFDD43462C
:102FF0003A46216AA66A2846B0470028F1DCA38930
:1030000043F04003A3814FF0FF30BDE8F08100BFE3
:103010000100402038B50B6905460C46DBB118B1FC
:1030200083690BB900F0A6F80C4B9C4201D16C6887
:1030300008E00B4B9C4201D1AC6803E0094B9C4279
:1030400008BFEC68B4F90C302BB121462846BDE826
:103050003840FFF757BF002038BD00BF3C92000842
:103060005C9200087C920008014620B9044B054997
:10307000186800F00BBA044B1868FFF7CBBF00BF0D
:10308000A0920008153000083002002038B50C4628
:10309000054618B183690BB900F06CF80E4B9C42E1
:1030A00001D16C6808E00D4B9C4201D1AC6803E093
:1030B0000B4B9C4208BFEC686368013B002B6360CC
:1030C00005DA21462846BDE8384001F07FBD236877
:1030D0005A1C2260187838BD3C9200085C920008A7
:1030E0007C920008024B01461868FFF7CFBF00BF73
:1030F00030020020014900F0C9B900BF15300008B6
:10310000002310B5044603604360836081814366F9
:10311000C281036143618361194608225C3000F07B
:10312000CAFA054B6362054BA362054BE362054B8C
:103130002462236310BD00BFB14E0008D74E0008C3
:103140000F4F0008334F000870B568234D1E5D43D4
:103150000E4605F1740100F0FDFA044640B100216D
:1031600080E842000C30A06005F1680200F0A3FA8C
:10317000204670BD836910B5044633BB8364C364C5
:103180000365124B124A1B688262984204BF0123F6
:10319000836100F01FF86060204600F01BF8A0601B
:1031A000204600F017F80022E06004216068FFF775
:1031B000A7FF01220921A068FFF7A2FF0222122126
:1031C000E068FFF79DFF0123A36110BDA0920008F6
:1031D000F5300008F8B51C4B1E68B369074613B9F3
:1031E0003046FFF7C7FF4836B4687368013B04D424
:1031F000B4F90C507DB16834F8E733680BB1366828
:10320000F2E704213846FFF79FFF30600028F6D12F
:103210000C233B60F8BD4FF6FF73E3810123A381CC
:1032200065662560A560656025616561A561082208
:10323000294604F15C0000F03EFA6563A563A564CD
:10324000E5642046F8BD00BFA092000870477047B3
:10325000F7B50F46114601AA054603F005FD0646DF
:1032600008B9002029E02846FFF7B4FF04460028EB
:10327000F7D04FF4DB73019A3946284601F0B4FBCE
:10328000002806DA0025FFF7E1FFA581FFF7DFFF41
:10329000E7E70B4B63620B4BA3620B4BE3620B4BF9
:1032A0002363F305E081A681246205D50223002271
:1032B0002146284600F040F8204603B0F0BD00BF8C
:1032C000B14E0008D74E00080F4F0008334F0008DA
:1032D000024B0A4601461868FFF7BABF30020020C9
:1032E00070B50E461446054618B183690BB9FFF751
:1032F00041FF0A4B9C4201D16C6808E0084B9C429C
:1033000001D1AC6803E0074B9C4208BFEC68224641
:1033100031462846BDE8704001F090BB3C92000861
:103320005C9200087C920008024B0A46014618682D
:10333000FFF7D6BF3002002000F000B82DE9F843B7
:103340000C4690461E46054618B183690BB9FFF737
:1033500011FF3D4B9C4201D16C6808E03B4B9C4205
:1033600001D1AC6803E03A4B9C4208BFEC68A389EA
:1033700003F48473B3F5847F03D121462846FFF715
:1033800049FEE76A0FB91D232BE0012E04D0022E5F
:103390002BD056B3162324E021462846FFF73AFEE9
:1033A000A28902F4805292B20AB1606D05E0216AEE
:1033B00033462846B847411C14D0A3895A0706D57E
:1033C0006368C01A636B4BB1236CC01A06E01B071D
:1033D00004D5236813B122699B1A1844804400263F
:1033E00003E02B604FF0FF392BE023691BB9214626
:1033F000284600F0B3F821462846FFF70BFE814629
:103400000028EFD133464246216A2846B8470130AA
:10341000E8D0616B41B104F14403994202D02846DF
:1034200000F052F90023636323692360A38900211C
:1034300023F402636160A381082204F15C0000F0C0
:103440003AF94846BDE8F8833C9200085C920008CF
:103450007C9200082DE9F041884600F148040026DE
:103460008CB1A5686768013F0BD4AB89012B06D9E5
:10347000B5F90E30013302D02846C04706436835FF
:10348000F1E72468ECE73046BDE8F0812DE9F84328
:103490008046894600F14804002694B1A568676813
:1034A000013F0CD4AB89012B07D9B5F90E3001339C
:1034B00003D029464046C84706436835F0E72468EC
:1034C000EBE73046BDE8F88370B50E4B0E4CE41ABE
:1034D000A41000251E46A54204D056F82530984772
:1034E0000135F8E705F0A2FB084C094BE41AA410DB
:1034F00000251E46A54204D056F8253098470135D0
:10350000F8E770BD700200207002002078020020F1
:103510007002002070B50E46B1F90E10002990B06F
:1035200014461D4606DA00232B60B3891A060ED511
:1035300040230EE001AA03F0CFFB0028F3DB029A40
:1035400002F47042A2F500535A425A412A604FF4E5
:1035500080630020236010B070BD00008B8973B5BC
:103560009E0705460C4610D401AB6A46FFF7D2FF12
:1035700000990646284600F0EDF868B9B4F90C3019
:103580009A0522D443F00203A38104F14703236088
:1035900023610123636118E00D4BAB62A3892060B6
:1035A00043F08003A381009B6361019B20614BB1C9
:1035B000B4F90E10284603F0BFFE18B1A38943F0FA
:1035C0000103A381A0893043A08102B070BD00BF78
:1035D000F5300008024B0146186800F0BBB800BF88
:1035E00030020020024B0146186800F06DB800BFA1
:1035F0003002002000000000000000000000000079
:1036000001F0FF01102A2BDB10F0070F08D010F893
:10361000013B013A8B422DD010F0070F42B3F6D197
:10362000F0B441EA012141EA014122F007047FF0B0
:1036300000070023F0E80256083C85EA010586EA07
:10364000010685FA47F5A3FA87F586FA47F6A5FA43
:1036500087F68EB9EED1F0BC01F0FF0102F007024F
:1036600032B110F8013B013A83EA010313B1F8D1FA
:103670000020704701387047002D06BF35460338DB
:10368000073815F0010F07D1013015F4807F02BF14
:10369000013015F4C03F0130F0BC0138704700BF65
:1036A00010B5431E0A44914204D011F8014B03F8AF
:1036B000014FF8E710BD02440346934202D003F8DD
:1036C000011BFAE77047000030B500293ED051F8E1
:1036D000042C0B1F1E49002AB8BF9B180A680C4611
:1036E00012B95A600B6030BD9A420ED91968581849
:1036F000824204BF106852685A6004BF09181960FA
:10370000236030BD994203D80A4651680029F9D197
:10371000146815199D420AD11B682344D0188142B0
:10372000136013D10868034413604B680DE002D99D
:103730000C23036030BD18681C18A14204BF0C683C
:103740004968596004BF00191860536030BD00BF5C
:103750001807002070B5CD1C25F0030508350C2D89
:1037600038BF0C25002D064603DA0C2333600020F9
:1037700070BDA942F9D81F4B1C681A462146A1B159
:103780000B685B1B0ED40B2B03D90B60CC18CD50F0
:103790001EE08C420DBF63684B686360136018BF06
:1037A0000C4615E00C464968E9E7134C23681BB941
:1037B000304601F037FA20602946304601F032FAEF
:1037C000431CD2D0C41C24F00304A0420AD12560BB
:1037D00004F10B00231D20F00700C31A09D05A4240
:1037E000E25070BD211A304601F01CFA0130EED1D2
:1037F000BBE770BD18070020140700209368013B49
:10380000002B10B4936009DA9469A34202DBCBB2B7
:103810000A2B03D15DF8044B02F016BB1368581C49
:1038200010601970C8B25DF8044B7047F8B50646D1
:103830000F461446D518AC4208D03A4614F8011B7E
:103840003046FFF7DBFF431CF5D100E00020F8BD58
:103850002DE9F04F9DB00C4617460393064618B16C
:1038600083690BB9FFF786FC7F4B9C4201D17468DA
:1038700008E07E4B9C4201D1B46803E07C4B9C4243
:1038800008BFF468A38918070CD5236953B1002336
:10389000099320238DF8293030238DF82A30DFF862
:1038A000D4B144E02146304602F034FB0028EED08B
:1038B0004FF0FF30D5E0039A111D12680391002AE2
:1038C00080F28C80524243F002000792049098F8F4
:1038D00000302E2B00F08480032298F800106548F9
:1038E000FFF78EFE48B14023CBEB000003FA00F057
:1038F000049B1843049008F1010898F800105E48F2
:103900008DF82810062208F10107FFF779FE00283C
:1039100000F09580594B002B40F08880039B0733C3
:1039200023F0070308330393099B53440993B846D4
:10393000454615F8013B1BB9B8EB07090FD003E06A
:10394000252BF9D0A846F3E74B463A4621463046A8
:10395000FFF76CFF01307FD0099B4B44099398F827
:103960000030002B78D000234FF0FF3204930793F0
:10397000059206938DF853301A9301270522297872
:103980003F48FFF73DFE05F10108049B38B13C4A72
:10399000801A07FA00F0184304904546EEE7D9066E
:1039A00044BF20228DF853201A0744BF2B228DF8E4
:1039B00053202A782A2A3FF47EAF079A00210A2052
:1039C000A846013598F80030303B092B03D800FB9E
:1039D00002320121F4E700293FF479AF079276E73C
:1039E00098F801302A2B0BD1039B1A1D1B680392F8
:1039F000002BB8BF4FF0FF3308F1020805936BE7C7
:103A00000023059308F1010019460A25804601307C
:103A100098F80020303A092A03D805FB0121012338
:103A2000F4E7002B3FF458AF059155E703AB009343
:103A30002246144B04A9304600F0C2F807E003AB5D
:103A4000009322460F4B04A9304600F073FBB0F1FF
:103A5000FF3F82467FF468AFA3895B063FF528AF3E
:103A600009981DB0BDE8F08F3C9200085C920008F8
:103A70007C920008AA920008AE920008C13B0008A0
:103A8000A49200082D38000813460A460146024851
:103A90000068FFF7DDBE00BF300200202DE9F047CF
:103AA00088B0002B149F1299109EDDF84CA01D4683
:103AB00027F02007BBBF03F100431D4600232D2341
:103AC0001446B8BF1446462F0B7003D0452F03D1C0
:103AD000013601E0032300E0022307AA049206AAAC
:103AE00003928DE8480422462B4602F021FB472F23
:103AF000804602D1119BDB0728D5462F08EB06092B
:103B000011D198F80030302B0AD100220023204632
:103B1000294604F0ABFF18B9C6F10106CAF80060E7
:103B2000DAF800309944002200232046294604F0A8
:103B30009DFF08B9302202E0CDF81C9006E0079BFB
:103B4000994503D9591C07911A70F8E7079B159AF4
:103B5000C8EB03034046136008B0BDE8F08773B5B7
:103B600003460029B8BF494203F8022BB4BF2D22F7
:103B70002B220929427019DD0DF1070216460A258C
:103B800091FBF5F405FB14113031092C02F8011DED
:103B90002146F5DC3031541E02F8011CB4421A46AD
:103BA0000AD214F8012B03F8012BF7E730241A4648
:103BB000214402F8024B5970101A02B070BD000087
:103BC0002DE9F04F91B00C46DDF8688016461F468F
:103BD000054603F0C1FB03680893184601F0B7F9E6
:103BE00000230E93D8F800300990073323F0070321
:103BF00003F1080294F818A0D4F800B0C8F8002027
:103C0000D3E90023C4E91223D4E9128929F000433F
:103C10000B93CDF828804FF0FF32A74BDDE90A0166
:103C200004F056FFA0B94FF0FF32A34BDDE90A01C3
:103C300004F030FF60B9002200234046494604F0FA
:103C40001FFF10B12D2384F843309C4B9C4A0AE09F
:103C500042464B464046494604F03AFF002800F0F1
:103C60009281984B984ABAF1470F8CBF904698467C
:103C7000032323612BF0040323604FF000093DE090
:103C8000BAF1670F00F08A81BAF1470F00F0868120
:103C9000236000210DF133020193636805900292C5
:103CA000009342464B460691CDF810A0CDF80CE0AB
:103CB0002846FFF7F3FE0AF0DF03472B804600F0AB
:103CC0008481BAF1650F0D9900F28D810139524658
:103CD00004F150000D91FFF742FF0E9A8318012A5C
:103CE0008146236100F37C812268D10700F178814D
:103CF0009DF8333013B12D2384F8433000973346B9
:103D00000FAA2146284600F09FF9013002D14FF05A
:103D1000FF3096E123685A0501D4236965E0BAF1C2
:103D2000650F40F2D58000220023D4E9120104F08F
:103D30009DFE78B30123654A31462846B8470130D5
:103D4000E5D00E9B0D9A9A420BDB2368D80708D466
:103D500023689B0740F111814FF0000804F1190915
:103D600006E1099B089A31462846B8470130CED073
:103D70004FF0000804F11A090E9B013B9845E7DA61
:103D800001234A4631462846B8470130BFD008F1E2
:103D90000108F1E70D9B002B29DC01234B4A31463A
:103DA0002846B8470130B2D00D9B23B90E9B13B9FA
:103DB0002368D907CCD5099B089A31462846B847CD
:103DC0000130A4D04FF0000904F11A0A0D9B5B42A8
:103DD000994509DA0123524631462846B847013051
:103DE00095D009F10109F1E70E9B4246A7E00E9A32
:103DF000A36D9A42A8BF1A46002A914606DC4FF0EE
:103E0000000A29EAE97904F11A0B11E01346314658
:103E100042462846B8470130F1D178E701235A4697
:103E200031462846B84701303FF471AF0AF1010A24
:103E3000A36DC9EB03029245F0DB08EB03090D9A71
:103E40000E9B9A420FDB2368DA070CD40E9B0D9A67
:103E50009844C9EB08089B1A9845A8BF9846B8F142
:103E6000000F08DC0FE0099B089A31462846B84746
:103E70000130EBD14BE743464A4631462846B84726
:103E800001303FF444AF4FF0000928EAE87804F12C
:103E90001A0A09E00123524631462846B847013044
:103EA0003FF435AF09F101090D9A0E9B9B1AC8EB3F
:103EB00003039945EEDB4BE7FFFFEF7FB592000868
:103EC000B9920008BD920008C19200080E93000844
:103ED0000E9A012A01DCDB0738D501234246314620
:103EE0002846B84701303FF412AF099B089A314683
:103EF0002846B84701303FF40AAF00220023D4E936
:103F0000120104F0B3FD20B14FF0000804F11A0AC9
:103F10000EE00E9B08F10102013B19E0012352461D
:103F200031462846B84701303FF4F1AE08F10108A8
:103F30000E9B013B9845F1DB4B4604F150023146A4
:103F40002846B84701307FF403AFE0E6012342463C
:103F500031462846B8470130EED1D8E601234A461B
:103F600031462846B84701303FF4D1AE08F1010888
:103F7000E3680F9A9B1A9845F0DBE0680F9B984224
:103F8000B8BF18465DE06268531C0EA84BF480630E
:103F90000DF1340E7FF474AE062201E012B9012255
:103FA000626075E6002106910DF133018DE80C0089
:103FB000236005904246CDF810A0CDF80CE00291A8
:103FC0004B462846FFF76AFD80460D9BD81C02DB56
:103FD000626893421DDDAAF1020A5FFA8AFA70E66E
:103FE0000133236184E6BAF1660F14D100296368B6
:103FF00007DD216113B92268D2071DD501330B44B7
:1040000019E013B92268D00701D5023313E0012368
:1040100011E04FF0670A0D9B0E9A934205DB226870
:104020002361D10708D5013305E0002BD4BFC3F1CC
:1040300002030123134423610D9BA3654FF0000984
:1040400056E611B0BDE8F08F2DE9F04791461F46C6
:104050000A698B68DDF820809342B8BF1346C9F81F
:10406000003091F8432006460C4612B10133C9F8DE
:1040700000302368990642BFD9F800300233C9F8EE
:104080000030256815F0060510D104F1190A07E083
:104090000123524639463046C04701301AD0013517
:1040A000E368D9F800209B1A9D42F1DB94F8433075
:1040B0002268003318BF012392060FD5E1185A1C5D
:1040C000302081F84300224494F8451082F84310D0
:1040D000023303E04FF0FF30BDE8F08704F1430204
:1040E00039463046C0470130F4D02268D9F8005034
:1040F000E36802F00602042A08BF5D1B2269A36878
:104100000CBF25EAE57500259342C4BF9B1AED1844
:104110004FF000091A344D4509D001232246394693
:104120003046C0470130D5D009F10109F3E700203E
:10413000BDE8F0872DE9F04317460A7E85B06E2A68
:10414000984606460C460C9B01F1430E00F0AE80EB
:1041500011D8632A22D009D8002A00F0BB80582A3F
:1041600040F0CA8081F84520834955E0642A1ED07A
:10417000692A1CD0C0E0732A00F0B08009D86F2AE9
:104180002ED0702A40F0B8800A6842F020020A60FF
:104190003EE0752A24D0782A3AD0ADE01A6801F1C1
:1041A0004205111D1960136884F84230A8E02168A7
:1041B0001A6811F0800F02D0111D196008E011F08B
:1041C000400F02F10401196002D0B2F9003000E0A2
:1041D0001368002B3CDA2D225B4284F8432037E041
:1041E00021681A6811F0800F02D0111D196007E0D4
:1041F00011F0400F02F10401196001D0138800E0B2
:104200001368227E5C496F2A14BF0A2208221BE031
:1042100078225A4984F845202268186812F0800FE5
:1042200000F104051D6003D1550601D5038800E0A7
:104230000368D00744BF42F0200222601BB9226805
:1042400022F0200222601022002084F8430001E0C6
:1042500049490A226568A560002D08DB206820F026
:10426000040020602BB9002D7DD175460CE0002B99
:1042700079D07546B3FBF2F002FB1033CB5C05F846
:10428000013D03460028F5D1082A0BD12368DA073F
:1042900008D5236962689A42DEBF302305F8013CE5
:1042A00005F1FF35C5EB0E0323612EE008681A689F
:1042B000496910F0800F03D0101D1860136808E0E2
:1042C00010F0400F02F104001860136801D019804B
:1042D00000E0196000232361754616E01A68111D7D
:1042E00019601568626800212846FFF789F908B14E
:1042F000401B6060636804E004F1420584F84220DA
:1043000001232361002384F84330CDF800803B462D
:1043100003AA21463046FFF797FE013002D14FF045
:10432000FF3026E023692A4639463046C04701302F
:10433000F5D023689B0710D5002504F1190907E083
:1043400001234A4639463046C0470130E7D001359F
:10435000E368039A9B1A9D42F2DBE068039B984254
:10436000B8BF184605E00B7884F8423004F14205E6
:104370008AE705B0BDE8F083C5920008D692000830
:104380002DE9F04F9A468B6816465A1EB2F5AE7F5D
:1043900087B083BF6FF4AE729B180193002386BF72
:1043A00040F25D138B6001930B68884643F4F06321
:1043B00048F81C3B4FF0000B07460C4645465A4652
:1043C000CDF810B0CDF80CB0D946CDF808B0A16842
:1043D000002900F0E58033681B78492B70D016D88F
:1043E000392B0DD8312B40D22D2B46D002D82B2B78
:1043F00043D0D5E02E2B00F09280302B23D0CFE09D
:10440000452B00F09580462B77D0412B0CE0652B97
:1044100000F08E800AD8542B75D002D84E2B34D0A1
:10442000BEE0592B75D0612B46D0B9E06E2B2CD055
:1044300004D8662B61D0692B42D0B1E0742B62D0D6
:10444000792B66D0ACE0206810F4807F0DD0019B02
:1044500020F08000206009F10109002B00F0878026
:10446000013B01310193A16081E012EB0B0F40F0A1
:104470009780216821F4C07105E02168080640F1A9
:104480008F8021F0800121606FE06AB9B9F1000FDF
:104490000CD1216801F4E060B0F5E06F06D121F4A1
:1044A000F0612160012260E0022A5DD0BBF1010FC2
:1044B0001ED0BBF1040F1AE0012A71D1022254E090
:1044C000BBF1000F0ED1B9F1000F6CD1216801F4DE
:1044D000E060B0F5E06F6AD121F4F06121604FF047
:1044E000010B42E0BBF1030F02D0BBF1050F57D126
:1044F0000BF1010B5FFA8BFB37E0BBF1020F4FD1E1
:104500004FF0030B31E0BBF1060F49D14FF0070B21
:104510002BE0BBF1070F43D14FF0080B25E02168DA
:1045200088053DD521F420712160CDF808901CE06C
:10453000216801F4A060B0F5806F04D048052FD544
:10454000B9F1000F33D088055CBF0298049521F4BF
:10455000F06158BFC0EB090041F4C07158BF03902F
:1045600021604FF0000900E003222B700135A368A1
:10457000013BA3602369013323617368013B002B76
:10458000736003DD33680133336020E7D4F8803192
:104590000592314638469847059A00283FF417AFF0
:1045A000B9F1000F03D0236823F480732360013A2C
:1045B000012A0ED845450AD9D4F87C3115F8011DD9
:1045C0003246384698472369013B2361F2E70126CA
:1045D000ADE00BF1FF33062B22D8BBF1020F12D94D
:1045E000ABF1030B5FFA8BFBCBEB050B5D4517D0F3
:1045F000D4F87C3115F8011D3246384698472369B6
:10460000013B2361F2E74545E1D9D4F87C3115F847
:10461000011D3246384698472369013B2361F2E782
:104620002368DA052CD55B050CD54545CFD9D4F8E0
:104630007C3115F8011D3246384698472369013B05
:104640002361F2E715F8011C2369652903F1FF33A3
:1046500005F1FF3B23610DD045290BD0D4F87C3107
:10466000324638469847236915F8021C013BA5F1EC
:10467000020B2361D4F87C313246384698475D46B8
:10468000266816F0100651D12E70236803F4C0631B
:10469000B3F5806F05D1029BC3EB09035A4263B99E
:1046A00015E0039B9BB104990A2332460131384639
:1046B00001F08AFA039B049DC21A04F26F139D4213
:1046C00028BF04F5B7751C49284600F0A3FB00225B
:1046D0004146384600F07CFC2268DAF8003012F0DF
:1046E000020F8046894603D01A1DCAF8002006E052
:1046F00012F0040503F10402CAF8002003D01B687D
:10470000C3E900890EE01F6802460B4604F0E0F999
:1047100018B1284600F07AFB03E04046494604F011
:1047200035FA3860E3680133E36000E00026304684
:1047300007B0BDE8F08F00BFE79200082DE9F8430D
:1047400015468A6880460C4632B98A69002A0CBF31
:1047500001224FF0FF328A602268DFF8A490D10670
:104760005FBF1A68111D196017680026A06900BB99
:104770002368DA065EBF2B681B783B702A686B687B
:1047800002F101022A60A26803F1FF3302F1FF3255
:104790006B6006F1010658BF0137A260E2B1002B41
:1047A000E4DCD4F880312946404698470028DDD023
:1047B00012E0012806D12B681A7863699B5C002BF4
:1047C000D6D119E0022807D12B68D9F800201B7830
:1047D00013445B781B07CBD5236813F0100305D176
:1047E000E2680132E260A26902B13B7023691E44B3
:1047F00026610020BDE8F883002EEDD1BDE8F883E6
:10480000340200202DE9F04F9A46734B0C46834644
:10481000164693E8070087B003ABA76883E8070054
:104820006E4BA1696E4A032918BF1A467B1EB3F569
:10483000AE7F84BF40F25D13A3602368009243F40F
:10484000506388BF6FF4AE7504F11C0923608CBF00
:104850007F1900274B464FF000080193316803ABE6
:10486000022253F828000978FEF7CAFE019B0028AF
:1048700033D0B8F1010F0BD162682AB90822626007
:10488000226842F400722260226822F4A0620CE0E6
:10489000B8F1020F0AD1226802F4C061B1F5007FBD
:1048A0001BD11021616042F480722260A268511E07
:1048B000A16092B13268511C316012781A705D1C8F
:1048C0007368013B002B736006DCD4F880313146FD
:1048D00058469847002840D12B4608F10108B8F106
:1048E000030FBAD162680AB90A22626062683D4960
:1048F00060690193891A00F0A5F9019B4FF0000847
:104900001D46A3685BB3316860690A78805C30B388
:10491000302A226808D1100506D508F101084FB1E8
:104920000133013FA36005E022F4106222600B789E
:104930002B7001357368013B002B736003DD336816
:104940000133336005E0D4F880313146584698474A
:1049500028B9A368013BA360D3E74FF000082368A0
:10496000D9050CD54D4508D915F8011CD4F87C3172
:104970003246584698476F1E3D464D4527D022681F
:1049800012F010021BD12A706368009E49465846F7
:10499000B0472268DAF8003012F0200F07D1D207B2
:1049A00005D51A1DCAF800201B68188004E01A1DDE
:1049B000CAF800201B681860E3680133E3602369CC
:1049C000C9EB050545441D442561002000E0012098
:1049D00007B0BDE8F08F00BFEC920008D55C00087E
:1049E000C95B00080893000838B5074C054608461F
:1049F0001146002222601A46FBF77AFF431C02D1BF
:104A0000236803B12B6038BD740700200FB40A4B34
:104A100013B51C6824B1A36913B92046FEF7AAFB9D
:104A200005AB049AA16801932046FEF711FF02B07E
:104A3000BDE8104004B070473002002070B50D464C
:104A40001446064618B183690BB9FEF793FB134B66
:104A50009C4201D1746808E0114B9C4201D1B468BA
:104A600003E0104B9C4208BFF468A368013B002B95
:104A7000A3600CDAA269934202DBEBB20A2B06D1E7
:104A8000224629463046BDE8704001F0DDB9236872
:104A90005A1C22601D70E8B270BD00BF3C92000835
:104AA0005C9200087C920008838903F00903092BBB
:104AB00001D1FEF7D9BA002070470000F8B50C46C6
:104AC000054618B183690BB9FEF754FB3A4B9C427B
:104AD00001D16C6808E0394B9C4201D1AC6803E01D
:104AE000374B9C4208BFEC68B4F90C20002363608C
:104AF00093B29E065BD458071AD4D90605D409236D
:104B000042F040022B60A28151E01A070BD52146EA
:104B10002846FEF77FFA002849D1A389A06023F038
:104B20000803A381A061A38943F00403A38110E0DB
:104B3000616B71B104F14403994202D02846FEF73B
:104B4000C3FD236C63600020606313B1E36B2360DB
:104B5000F8BD23691BB921462846FEF7FFFCB4F9CE
:104B60000C70BEB2B3070FD00123A381154B1649B9
:104B7000186806F00906FEF76DFC092EA78103D11F
:104B800021462846FEF7BEF922692260666A6369FB
:104B9000216A2846B047002860600BDCA38917BF54
:104BA000002243F0200343F040036260A3814FF0F2
:104BB000FF30F8BD0020F8BD3C9200085C92000870
:104BC0007C920008A0920008A94A000838B50C465B
:104BD000054618B183690BB9FEF7CCFA0E4B9C421F
:104BE00001D16C6808E00D4B9C4201D1AC6803E038
:104BF0000B4B9C4208BFEC6821462846FFF75EFF3E
:104C000038B96368013B636023685A1C22601878D6
:104C100038BD4FF0FF3038BD3C9200085C92000870
:104C20007C92000838B5064C0023054608462360F0
:104C3000FBF77CFF431C02D1236803B12B6038BD16
:104C40007407002070B50B785E2B13BF4A1C8A1CBA
:104C50004B78002108BF0121441E00F1FF0504F834
:104C6000011FAC42FBD10BB9501E70BD81F0010495
:104C7000C45411460D782D2D01F1010206D05D2D91
:104C80000FD00DB12B46F3E7084670BD4E785D2E70
:104C9000F8D0B342F6DC023101339E42C454FBDC4F
:104CA000E8E7104670BD00294FF480630CBF022274
:104CB000002200F001B800002DE9F7431D464F4BDC
:104CC0001E6804460F46904626B1B36913B93046B4
:104CD000FEF750FA4A4B9C4201D1746808E0494BF8
:104CE0009C4201D1B46803E0474B9C4208BFF46882
:104CF000B8F1020F04D0B8F1010F79D8002D77DB9D
:104D000021463046FEF786F9616B41B104F1440358
:104D1000994202D03046FEF7D7FC0023636300239C
:104D2000A3616360A3891B0603D521693046FEF7A2
:104D3000CBFCA38923F44A6323F00303B8F1020FE9
:104D4000A3811ED001AB6A4621463046FEF7E2FB46
:104D5000A3891843A0810DB9009D00E02FBB284610
:104D6000FEF738FC0746D0B9DDF80090A94502D11E
:104D70004FF0FF3006E04846FEF72CFC074678B9B6
:104D8000F6E70020A38943F00203A3810023A36078
:104D900004F1470323602361012363612AE0A946EC
:104DA000A38943F08003A3814D46B36913B930460C
:104DB000FEF7E0F9B8F1010F08BFA389276004BF2F
:104DC00043F00103A381A389276103F0080080B2A7
:104DD000656158B113F001034FF000001DBF6D4233
:104DE000A060A561A56008BF184603E0A06001E0CF
:104DF0004FF0FF3003B0BDE8F08300BF3002002069
:104E00003C9200085C9200087C92000800487047C1
:104E10000000C07F0EB400B59CB04FF402711DAB12
:104E2000ADF81410029006906FF000410A4804910A
:104E300007914FF6FF7153F8042BADF81610006878
:104E4000019302A902F032FF029B00221A701CB0EB
:104E50005DF804EB03B07047300200200EB430B5AB
:104E60009CB01FAC4FF4017254F8045BADF81420F1
:104E70000290069000F06BF80B4B039007900B9399
:104E80000A48019400230F9314934FF6FF73ADF873
:104E900016302A46234602A9006803F057F81CB0D2
:104EA000BDE8304003B07047D34E00083002002008
:104EB00010B50C46B1F90E1003F09CF90028ABBFF9
:104EC000636DA3891B1823F48053ACBF6365A38172
:104ED00010BD002070472DE9F0411F468B89DB058E
:104EE00005460C46164605D502230022B1F90E10E0
:104EF00002F036FAA389B4F90E1023F48053A3818B
:104F000032463B462846BDE8F04100F0F1BF10B5FF
:104F10000C46B1F90E1002F023FA431CA38915BF09
:104F2000606523F4805343F48053A38118BFA381A9
:104F300010BDB1F90E1001F05BB810F8012B11F89B
:104F4000013B012A28BF9A42F7D0D01A7047034686
:104F500013F8012B002AFBD1181A0138704730B51D
:104F600082B1451E013915F8013F11F8014FA342E6
:104F700006D1EC431444E04201D0002BF3D11C468F
:104F8000181B30BD104630BD2DE9F0410F4690464C
:104F900002F0DAFC04460D46B8F1000F11D0C7F359
:104FA0000A53C3F16B03002B0BDD1B0503F17F5587
:104FB000002405F5401522462B4603F0EFFABDE824
:104FC000F08120462946BDE8F08100000000000085
:104FD0002DE9F04F9FB0002380460C4615921A939E
:104FE0004FF0000A4FF0000B1991199B1A780D2A07
:104FF00005D8092A13D2002A00F0AF8112E02B2A2B
:1050000004D02D2A04D0202A0CD108E0002200E090
:10501000012209925A1C19925B782BB99DE1013348
:105020001993E2E700230993199D2B78302B5CD16B
:105030006B78582B01D0782B4CD1099B01931AAB7C
:105040000093A84A1BAB19A9404601F0A2FE10F03C
:105050000706044600F08585062E05D1013500239C
:105060001995099300F07DBD1A9A3AB135211CA813
:1050700002F052FD1A99404602F0D4F9062E22D8C9
:10508000DFE806F0040D08181D0D04004FF0000BBA
:10509000DA4618E0DDF870A0DDF874B013E01D9B6F
:1050A0001B9ADDF870A023F4801302F2334243EA26
:1050B000025B08E0DFF830B24FF0000A03E06FF067
:1050C000004B4FF0FF3A210740F14B854BF0004B6E
:1050D00000F047BD199B5A1C19925B78302BF9D010
:1050E000002B00F03E85012300E000230893199B6C
:1050F0000A9300230393059304930A22199D2E78A3
:10510000A6F13003D9B2092911D804990829D5BFCD
:105110000599039902FB013302FB0133D4BF0593C8
:105120000393049B0135013304931995E6E7404648
:1051300002F012F90768404602F00EF90068FFF726
:1051400006FF394602462846FFF709FF074628B101
:1051500000203346049D024601465AE0404602F0D4
:10516000FBF80068FFF7F3FE199B1A181992049ACE
:105170001B5C002A45D11046302B05D1199B5A1CC7
:10518000199201305B78F7E7A3F13102082A46D87B
:10519000199A0A92024600200546303B00F10101AF
:1051A00029D00A4405EB000C29460A2661450FD098
:1051B000013101F1FF3EBEF1080F03DC059F77438B
:1051C0000597F3E71029DEBF039F77430397EDE7C9
:1051D0002844082800F1010505DC05980A2101FB97
:1051E0000033059306E0102DDFBF03980A2101FB71
:1051F000003303930021199B581C19905B780846D3
:1052000002E0049D38463A46A3F130010929C4D989
:105210000121652B01D0452B51D16DB904E0652BDF
:1052200040F0AD840022012128B9089B002B00F03A
:105230009480054600E00025199C631C199363784F
:105240002B2B06D02D2B02D00026069606E001233C
:1052500000E000230693A31C1993A378A3F1300662
:10526000092E2BD8302B04D1199B5E1C19965B7824
:10527000F8E7A3F13106082E21D8A3F1300E199BCF
:105280004FF00A0C1F46199B5E1C19965B78A3F120
:105290003009B9F1090F04D80CFB0E3EAEF1300E07
:1052A000F1E7F61B082E44F61F6902DCF145A8BFA2
:1052B000F146069E2EB1C9F1000902E019944FF0A3
:1052C0000009002D51D1002840F04B84089A002A93
:1052D00040F04784002940D14E2B1FD006DC492BDB
:1052E00009D03AE0149300080000F07F692B02D047
:1052F0006E2B13D031E0A74919A801F07BFF60B3F2
:10530000199BA549013B19A8199301F073FF10B926
:10531000199B01331993DFF89CB21AE09F4919A831
:1053200001F068FFC8B1199B1B78282B0FD11CAA6C
:105330009B4919A801F071FF052808D11D9BDDF8D4
:1053400070A043F0FF4B4BF4E00B00F00ABCDFF819
:1053500068B24FF0000A00F004BC159B1994002BB2
:1053600000F00A8400230993FDE3049B0598002BB9
:1053700008BF2B46102D2C46C2EB0909A8BF1024EC
:10538000049303F095F8092C82468B4613DD854B78
:1053900003EBC40353E9122303F000F90646039814
:1053A0000F4603F085F802460B463046394602F0B8
:1053B00043FF82468B460F2D36DCB9F1000F00F01B
:1053C000D08324DDB9F1160F07DC764D05EBC90952
:1053D00052465B46D9E9000114E0C5F12503994521
:1053E00022DC704CC5F10F0504EBC501C5EB0905C6
:1053F00052465B46D1E9000104EBC50403F0CEF848
:10540000D4E9002303F0CAF882468B46A9E319F1D8
:10541000160F09DB634DA5EBC909D9E900235046F6
:10542000594603F0E5F9EFE72C1B4C44002C56DD00
:1054300014F00F010AD05B4B03EBC10152465B46EF
:10544000D1E9000103F0AAF882468B4634F00F043C
:1054500000F0B680B4F59A7F0BDD0024A1460594D8
:1054600004942223C8F80030DFF848B14FF0000A56
:105470007AE100234C4E2411504659461F46012C18
:105480000ADDE20704D5D6E9002303F087F80123FB
:10549000013764100836F2E70BB182468B46424B67
:1054A000ABF1547B03EBC70752465B46D7E90001DB
:1054B00003F074F821F000438B460A461B0D3B496C
:1054C0001B058B428246C8D8A1F580118B4286BF4E
:1054D000DFF8E8B04FF0FF3A02F1547B70E06FD094
:1054E000644214F00F020AD02E4B03EBC203504665
:1054F0005946D3E9002303F07BF982468B462411F9
:105500005ED01F2C04DD0024A1460594049424E100
:1055100014F0100F0CBF00236A23254E039350464E
:1055200059460023002C09DDE20704D5D6E9002303
:1055300003F034F8012364100836F3E70BB1824618
:105540008B46039BEBB1CBF30A53C3F16B03002BE8
:10555000594616DD1F2B0EDD342BDEBF203B4FF0EE
:10556000FF3202FA03F34FF0000ACCBF4FF05C7B2E
:1055700003EA010B05E04FF0FF3202FA03F303EAFE
:105580000A0A002200235046594603F06FFA002809
:10559000B9D117E0BA9200086C940008C2920008D2
:1055A0002893000880940008489500080000A07C1B
:1055B000409300080000F07F0000F8FFFFFFEF7F3E
:1055C00000230393059B0093049A0A992B464046B7
:1055D00001F07AFF059000283FF43FAFB9F1000FCA
:1055E000C9F10003A8BF00230E93002429EAE97340
:1055F0000F93A146059B4046596801F0DEFE0490DA
:1056000000283FF42EAF059B1A69023203F10C010A
:1056100092000C30FEF744F81CAB01931BAB0093D7
:1056200052465B464046CDE90AAB02F0FEF91A90BD
:1056300000283FF416AF0121404601F0D0FF81461B
:1056400000283FF40EAF1B9B03991C9D002BADBFA0
:105650000E9A0F9A0E9FD718B8BFD21AA3EB010368
:105660002B44B249A8BF0F9A013B8B42C5F13605C6
:1056700080F28680C91A1F29A5EB01054FF00100B1
:1056800077DC00FA01F31493002306937E19039B41
:10569000B74215441D443B46A8BF3346AB42A8BFA2
:1056A0002B46002BC2BFF61AED1AFF1A0E9B002BD9
:1056B0006BD1002E00F382800F9B002B40F088807E
:1056C000002D00F38F80002F00F39680049A1A9922
:1056D000404602F0DAF8044600283FF4C2AEC36840
:1056E00008930023C360494602F0B3F8002880F213
:1056F0009180089B002B40F00D82BAF1000F40F022
:105700000982CBF31303002B40F004822BF00043FB
:105710001B0D1B05B3F1D66F40F2FC816369002BB2
:1057200074D021460122404602F042F84946044620
:1057300002F08FF8002840F3ED812BF00043039A2C
:105740001B0D1B05002A00F09480B3F1D66F00F307
:105750009080B3F15C7F00F3DF8122234FF0000AD9
:105760004FF0000BC8F80030059B002B40F0E5819E
:10577000F7E16F4E1490F61A00FA06F3069385E7E8
:10578000002306930123149380E749461A464046B6
:1057900001F0C0FF814600283FF463AE01461A9A2B
:1057A000404601F025FF089000283FF45AAE1A99B0
:1057B000404601F037FE089B1A937AE732461A9961
:1057C000404601F0F5FF1A9000287FF475AF48E6D7
:1057D0000F9A0499404601F09DFF049000287FF441
:1057E0006FAF3EE62A460499404601F0E1FF04907F
:1057F00000287FF468AF34E649463A46404601F057
:10580000D7FF814600287FF461AF2AE62369012B88
:1058100087DC7FE162D1089ACBF3130322B34549B9
:105820008B425A462ED1039B514663B1424B1340E3
:10583000B3F1D46F07D81B0DC3F16B034FF0FF30EA
:1058400000FA03F301E04FF0FF338B421AD13B49DA
:105850008A4202D101333FF404AE374B134003F5C3
:10586000801B4FF0000A55E163B9BAF1000F09D16E
:1058700063E7A3F580136FEA135B6FEA0B5B4FF0EE
:10588000FF3A47E1069B13B113EA0B0F02E0149BAA
:1058900013EA0A0F00F03E81089B039A50465946CE
:1058A00053B1FFF771FB02460B46DDE90A0102F036
:1058B000C3FC82468B462DE1FFF766FB02460B4692
:1058C000DDE90A0102F0B6FC0022002382468B4685
:1058D00003F0CCF800287FF440AF1BE14946204696
:1058E00002F0F1F800224FF0804306460F4603F025
:1058F000D1F8002841D0089B13B10022104B0FE0D3
:10590000BAF1000F03D1CBF313033BB91CE0BAF19A
:10591000010F03D1BBF1000F3FF41FAF094B002271
:10592000CDE906230026064F3CE000BF02FCFFFF46
:10593000E2FBFFFFFFFF0F000000F07FFFFFEF7FA4
:105940000000F03F0000F0BF0022994B304639467E
:1059500003F096F840B9304639460022954B02F0E4
:105960001DFE06460F4601E0924F002607F1004358
:1059700016961793DDE9162312E08E4B3046394612
:10598000002202F00BFE089B06460F4623B901F1E8
:1059900000431090119301E0CDE91067DDE9102379
:1059A000CDE906232BF000452D0D834B2D059D429F
:1059B0002BD1DDE90A23ABF1547B50465946CDE9A2
:1059C0000C2301F0C1FF02460B46DDE9060102F09F
:1059D000E5FD52465B4602F02FFC21F000431B0D13
:1059E000764A1B05934282460CD9754B0D9A9A4212
:1059F00003D10C9B01333FF434ADDFF8C4B14FF059
:105A0000FF3A76E001F1547B3BE0039B3BB3B5F1F9
:105A1000D46F24D85EA3D3E900233046394603F07F
:105A200039F8B8B13946304603F090F8002808BF7D
:105A3000012002F03DFD089B06460F4623B901F107
:105A400000431290139301E0CDE91267DDE91223C0
:105A5000CDE90623079B03F1D6635B1B0793DDE9C2
:105A60000A01DDE906AB01F06FFF02460B46504626
:105A7000594602F093FDDDE90A2302F0DDFB824680
:105A80008B46039B002B34D12BF000431B0D1B05D1
:105A90009D42CDF828B02CD13946304603F02EF87F
:105AA00002F016FD0B4602463946304602F0C2FBB4
:105AB000089BCDE9060133B9BAF1000F03D10A9B67
:105AC000C3F313067EB134A3D3E90023DDE9060155
:105AD00002F0D6FF88BB32A3D3E90023DDE906013B
